{
  "_format": "hh-sol-artifact-1",
  "contractName": "ConfidentialNFT",
  "sourceName": "contracts/ConfidentialNFT.sol",
  "abi": [
    {
      "inputs": [
        {
          "internalType": "string",
          "name": "name",
          "type": "string"
        },
        {
          "internalType": "string",
          "name": "symbol",
          "type": "string"
        }
      ],
      "stateMutability": "nonpayable",
      "type": "constructor"
    },
    {
      "anonymous": false,
      "inputs": [
        {
          "indexed": true,
          "internalType": "address",
          "name": "owner",
          "type": "address"
        },
        {
          "indexed": true,
          "internalType": "address",
          "name": "approved",
          "type": "address"
        },
        {
          "indexed": true,
          "internalType": "uint256",
          "name": "tokenId",
          "type": "uint256"
        }
      ],
      "name": "Approval",
      "type": "event"
    },
    {
      "anonymous": false,
      "inputs": [
        {
          "indexed": true,
          "internalType": "address",
          "name": "owner",
          "type": "address"
        },
        {
          "indexed": true,
          "internalType": "address",
          "name": "operator",
          "type": "address"
        },
        {
          "indexed": false,
          "internalType": "bool",
          "name": "approved",
          "type": "bool"
        }
      ],
      "name": "ApprovalForAll",
      "type": "event"
    },
    {
      "anonymous": false,
      "inputs": [
        {
          "indexed": true,
          "internalType": "address",
          "name": "to",
          "type": "address"
        },
        {
          "indexed": true,
          "internalType": "uint256",
          "name": "tokenId",
          "type": "uint256"
        }
      ],
      "name": "ConfidentialMint",
      "type": "event"
    },
    {
      "anonymous": false,
      "inputs": [
        {
          "indexed": true,
          "internalType": "uint256",
          "name": "tokenId",
          "type": "uint256"
        },
        {
          "indexed": false,
          "internalType": "uint32",
          "name": "newLevel",
          "type": "uint32"
        }
      ],
      "name": "NFTUpgraded",
      "type": "event"
    },
    {
      "anonymous": false,
      "inputs": [
        {
          "indexed": true,
          "internalType": "address",
          "name": "previousOwner",
          "type": "address"
        },
        {
          "indexed": true,
          "internalType": "address",
          "name": "newOwner",
          "type": "address"
        }
      ],
      "name": "OwnershipTransferred",
      "type": "event"
    },
    {
      "anonymous": false,
      "inputs": [
        {
          "indexed": true,
          "internalType": "uint256",
          "name": "tokenId",
          "type": "uint256"
        },
        {
          "indexed": false,
          "internalType": "uint256",
          "name": "price",
          "type": "uint256"
        }
      ],
      "name": "PriceSet",
      "type": "event"
    },
    {
      "anonymous": false,
      "inputs": [
        {
          "indexed": true,
          "internalType": "address",
          "name": "from",
          "type": "address"
        },
        {
          "indexed": true,
          "internalType": "address",
          "name": "to",
          "type": "address"
        },
        {
          "indexed": true,
          "internalType": "uint256",
          "name": "tokenId",
          "type": "uint256"
        }
      ],
      "name": "Transfer",
      "type": "event"
    },
    {
      "anonymous": false,
      "inputs": [
        {
          "indexed": true,
          "internalType": "uint256",
          "name": "tokenId",
          "type": "uint256"
        },
        {
          "indexed": true,
          "internalType": "address",
          "name": "viewer",
          "type": "address"
        }
      ],
      "name": "ViewingPermissionGranted",
      "type": "event"
    },
    {
      "anonymous": false,
      "inputs": [
        {
          "indexed": true,
          "internalType": "uint256",
          "name": "tokenId",
          "type": "uint256"
        },
        {
          "indexed": true,
          "internalType": "address",
          "name": "viewer",
          "type": "address"
        }
      ],
      "name": "ViewingPermissionRevoked",
      "type": "event"
    },
    {
      "inputs": [
        {
          "internalType": "address",
          "name": "to",
          "type": "address"
        },
        {
          "internalType": "uint256",
          "name": "tokenId",
          "type": "uint256"
        }
      ],
      "name": "approve",
      "outputs": [],
      "stateMutability": "nonpayable",
      "type": "function"
    },
    {
      "inputs": [
        {
          "internalType": "address",
          "name": "owner",
          "type": "address"
        }
      ],
      "name": "balanceOf",
      "outputs": [
        {
          "internalType": "uint256",
          "name": "",
          "type": "uint256"
        }
      ],
      "stateMutability": "view",
      "type": "function"
    },
    {
      "inputs": [
        {
          "internalType": "address[]",
          "name": "recipients",
          "type": "address[]"
        }
      ],
      "name": "batchMint",
      "outputs": [],
      "stateMutability": "payable",
      "type": "function"
    },
    {
      "inputs": [
        {
          "internalType": "uint256",
          "name": "tokenId1",
          "type": "uint256"
        },
        {
          "internalType": "uint256",
          "name": "tokenId2",
          "type": "uint256"
        }
      ],
      "name": "compareRarity",
      "outputs": [
        {
          "internalType": "bool",
          "name": "isFirstRarer",
          "type": "bool"
        }
      ],
      "stateMutability": "view",
      "type": "function"
    },
    {
      "inputs": [
        {
          "internalType": "uint256",
          "name": "tokenId",
          "type": "uint256"
        }
      ],
      "name": "getApproved",
      "outputs": [
        {
          "internalType": "address",
          "name": "",
          "type": "address"
        }
      ],
      "stateMutability": "view",
      "type": "function"
    },
    {
      "inputs": [
        {
          "internalType": "uint256",
          "name": "tokenId",
          "type": "uint256"
        }
      ],
      "name": "getAttributes",
      "outputs": [
        {
          "internalType": "uint32",
          "name": "rarity",
          "type": "uint32"
        },
        {
          "internalType": "uint32",
          "name": "power",
          "type": "uint32"
        },
        {
          "internalType": "uint32",
          "name": "level",
          "type": "uint32"
        },
        {
          "internalType": "uint64",
          "name": "value",
          "type": "uint64"
        }
      ],
      "stateMutability": "view",
      "type": "function"
    },
    {
      "inputs": [],
      "name": "getCurrentTokenId",
      "outputs": [
        {
          "internalType": "uint256",
          "name": "",
          "type": "uint256"
        }
      ],
      "stateMutability": "view",
      "type": "function"
    },
    {
      "inputs": [
        {
          "internalType": "uint256",
          "name": "tokenId",
          "type": "uint256"
        }
      ],
      "name": "getPrice",
      "outputs": [
        {
          "internalType": "uint256",
          "name": "price",
          "type": "uint256"
        }
      ],
      "stateMutability": "view",
      "type": "function"
    },
    {
      "inputs": [
        {
          "internalType": "uint256",
          "name": "tokenId",
          "type": "uint256"
        },
        {
          "internalType": "address",
          "name": "viewer",
          "type": "address"
        }
      ],
      "name": "grantViewPermission",
      "outputs": [],
      "stateMutability": "nonpayable",
      "type": "function"
    },
    {
      "inputs": [
        {
          "internalType": "uint256",
          "name": "tokenId",
          "type": "uint256"
        },
        {
          "internalType": "address",
          "name": "viewer",
          "type": "address"
        }
      ],
      "name": "hasViewPermission",
      "outputs": [
        {
          "internalType": "bool",
          "name": "",
          "type": "bool"
        }
      ],
      "stateMutability": "view",
      "type": "function"
    },
    {
      "inputs": [
        {
          "internalType": "address",
          "name": "owner",
          "type": "address"
        },
        {
          "internalType": "address",
          "name": "operator",
          "type": "address"
        }
      ],
      "name": "isApprovedForAll",
      "outputs": [
        {
          "internalType": "bool",
          "name": "",
          "type": "bool"
        }
      ],
      "stateMutability": "view",
      "type": "function"
    },
    {
      "inputs": [],
      "name": "maxSupply",
      "outputs": [
        {
          "internalType": "uint256",
          "name": "",
          "type": "uint256"
        }
      ],
      "stateMutability": "view",
      "type": "function"
    },
    {
      "inputs": [
        {
          "internalType": "address",
          "name": "to",
          "type": "address"
        }
      ],
      "name": "mint",
      "outputs": [],
      "stateMutability": "payable",
      "type": "function"
    },
    {
      "inputs": [],
      "name": "mintPrice",
      "outputs": [
        {
          "internalType": "uint256",
          "name": "",
          "type": "uint256"
        }
      ],
      "stateMutability": "view",
      "type": "function"
    },
    {
      "inputs": [],
      "name": "name",
      "outputs": [
        {
          "internalType": "string",
          "name": "",
          "type": "string"
        }
      ],
      "stateMutability": "view",
      "type": "function"
    },
    {
      "inputs": [],
      "name": "owner",
      "outputs": [
        {
          "internalType": "address",
          "name": "",
          "type": "address"
        }
      ],
      "stateMutability": "view",
      "type": "function"
    },
    {
      "inputs": [
        {
          "internalType": "uint256",
          "name": "tokenId",
          "type": "uint256"
        }
      ],
      "name": "ownerOf",
      "outputs": [
        {
          "internalType": "address",
          "name": "",
          "type": "address"
        }
      ],
      "stateMutability": "view",
      "type": "function"
    },
    {
      "inputs": [],
      "name": "renounceOwnership",
      "outputs": [],
      "stateMutability": "nonpayable",
      "type": "function"
    },
    {
      "inputs": [
        {
          "internalType": "uint256",
          "name": "tokenId",
          "type": "uint256"
        },
        {
          "internalType": "address",
          "name": "viewer",
          "type": "address"
        }
      ],
      "name": "revokeViewPermission",
      "outputs": [],
      "stateMutability": "nonpayable",
      "type": "function"
    },
    {
      "inputs": [
        {
          "internalType": "address",
          "name": "from",
          "type": "address"
        },
        {
          "internalType": "address",
          "name": "to",
          "type": "address"
        },
        {
          "internalType": "uint256",
          "name": "tokenId",
          "type": "uint256"
        }
      ],
      "name": "safeTransferFrom",
      "outputs": [],
      "stateMutability": "nonpayable",
      "type": "function"
    },
    {
      "inputs": [
        {
          "internalType": "address",
          "name": "from",
          "type": "address"
        },
        {
          "internalType": "address",
          "name": "to",
          "type": "address"
        },
        {
          "internalType": "uint256",
          "name": "tokenId",
          "type": "uint256"
        },
        {
          "internalType": "bytes",
          "name": "data",
          "type": "bytes"
        }
      ],
      "name": "safeTransferFrom",
      "outputs": [],
      "stateMutability": "nonpayable",
      "type": "function"
    },
    {
      "inputs": [
        {
          "internalType": "address",
          "name": "operator",
          "type": "address"
        },
        {
          "internalType": "bool",
          "name": "approved",
          "type": "bool"
        }
      ],
      "name": "setApprovalForAll",
      "outputs": [],
      "stateMutability": "nonpayable",
      "type": "function"
    },
    {
      "inputs": [
        {
          "internalType": "uint256",
          "name": "_mintPrice",
          "type": "uint256"
        }
      ],
      "name": "setMintPrice",
      "outputs": [],
      "stateMutability": "nonpayable",
      "type": "function"
    },
    {
      "inputs": [
        {
          "internalType": "uint256",
          "name": "tokenId",
          "type": "uint256"
        },
        {
          "internalType": "uint256",
          "name": "price",
          "type": "uint256"
        }
      ],
      "name": "setPrice",
      "outputs": [],
      "stateMutability": "nonpayable",
      "type": "function"
    },
    {
      "inputs": [
        {
          "internalType": "bytes4",
          "name": "interfaceId",
          "type": "bytes4"
        }
      ],
      "name": "supportsInterface",
      "outputs": [
        {
          "internalType": "bool",
          "name": "",
          "type": "bool"
        }
      ],
      "stateMutability": "view",
      "type": "function"
    },
    {
      "inputs": [],
      "name": "symbol",
      "outputs": [
        {
          "internalType": "string",
          "name": "",
          "type": "string"
        }
      ],
      "stateMutability": "view",
      "type": "function"
    },
    {
      "inputs": [
        {
          "internalType": "uint256",
          "name": "index",
          "type": "uint256"
        }
      ],
      "name": "tokenByIndex",
      "outputs": [
        {
          "internalType": "uint256",
          "name": "",
          "type": "uint256"
        }
      ],
      "stateMutability": "view",
      "type": "function"
    },
    {
      "inputs": [
        {
          "internalType": "address",
          "name": "owner",
          "type": "address"
        },
        {
          "internalType": "uint256",
          "name": "index",
          "type": "uint256"
        }
      ],
      "name": "tokenOfOwnerByIndex",
      "outputs": [
        {
          "internalType": "uint256",
          "name": "",
          "type": "uint256"
        }
      ],
      "stateMutability": "view",
      "type": "function"
    },
    {
      "inputs": [
        {
          "internalType": "uint256",
          "name": "tokenId",
          "type": "uint256"
        }
      ],
      "name": "tokenURI",
      "outputs": [
        {
          "internalType": "string",
          "name": "",
          "type": "string"
        }
      ],
      "stateMutability": "view",
      "type": "function"
    },
    {
      "inputs": [],
      "name": "totalSupply",
      "outputs": [
        {
          "internalType": "uint256",
          "name": "",
          "type": "uint256"
        }
      ],
      "stateMutability": "view",
      "type": "function"
    },
    {
      "inputs": [
        {
          "internalType": "address",
          "name": "from",
          "type": "address"
        },
        {
          "internalType": "address",
          "name": "to",
          "type": "address"
        },
        {
          "internalType": "uint256",
          "name": "tokenId",
          "type": "uint256"
        }
      ],
      "name": "transferFrom",
      "outputs": [],
      "stateMutability": "nonpayable",
      "type": "function"
    },
    {
      "inputs": [
        {
          "internalType": "address",
          "name": "newOwner",
          "type": "address"
        }
      ],
      "name": "transferOwnership",
      "outputs": [],
      "stateMutability": "nonpayable",
      "type": "function"
    },
    {
      "inputs": [
        {
          "internalType": "uint256",
          "name": "targetTokenId",
          "type": "uint256"
        },
        {
          "internalType": "uint256",
          "name": "sacrificeTokenId",
          "type": "uint256"
        }
      ],
      "name": "upgradeLevel",
      "outputs": [],
      "stateMutability": "nonpayable",
      "type": "function"
    },
    {
      "inputs": [],
      "name": "withdraw",
      "outputs": [],
      "stateMutability": "nonpayable",
      "type": "function"
    }
  ],
  "bytecode": "0x6080604052662386f26fc100006010556127106011553480156200002257600080fd5b5060405162003314380380620033148339810160408190526200004591620001b8565b81816000620000558382620002b1565b506001620000648282620002b1565b505050620000816200007b6200009d60201b60201c565b620000a1565b6001600b5562000095600c80546001019055565b50506200037d565b3390565b600a80546001600160a01b038381166001600160a01b0319831681179093556040519116919082907f8be0079c531659141344cd1fd0a4f28419497f9722a3daafe3b4186f6b6457e090600090a35050565b634e487b7160e01b600052604160045260246000fd5b600082601f8301126200011b57600080fd5b81516001600160401b0380821115620001385762000138620000f3565b604051601f8301601f19908116603f01168101908282118183101715620001635762000163620000f3565b816040528381526020925086838588010111156200018057600080fd5b600091505b83821015620001a4578582018301518183018401529082019062000185565b600093810190920192909252949350505050565b60008060408385031215620001cc57600080fd5b82516001600160401b0380821115620001e457600080fd5b620001f28683870162000109565b935060208501519150808211156200020957600080fd5b50620002188582860162000109565b9150509250929050565b600181811c908216806200023757607f821691505b6020821081036200025857634e487b7160e01b600052602260045260246000fd5b50919050565b601f821115620002ac57600081815260208120601f850160051c81016020861015620002875750805b601f850160051c820191505b81811015620002a85782815560010162000293565b5050505b505050565b81516001600160401b03811115620002cd57620002cd620000f3565b620002e581620002de845462000222565b846200025e565b602080601f8311600181146200031d5760008415620003045750858301515b600019600386901b1c1916600185901b178555620002a8565b600085815260208120601f198616915b828110156200034e578886015182559484019460019091019084016200032d565b50858210156200036d5787850151600019600388901b60f8161c191681555b5050505050600190811b01905550565b612f87806200038d6000396000f3fe6080604052600436106101f95760003560e01c80636a6278421161010d578063c5aa43f1116100a0578063e75722301161006f578063e7572230146105a9578063e985e9c5146105c9578063f2fde38b14610612578063f4a0a52814610632578063f7d975771461065257600080fd5b8063c5aa43f114610540578063c87b56dd14610560578063d5abeb0114610580578063d67b06c11461059657600080fd5b80639515671f116100dc5780639515671f146104cb57806395d89b41146104eb578063a22cb46514610500578063b88d4fde1461052057600080fd5b80636a6278421461046557806370a0823114610478578063715018a6146104985780638da5cb5b146104ad57600080fd5b80632f745c59116101905780634c6a90861161015f5780634c6a9086146103da5780634f6ccce7146103fa578063561892361461041a5780636352211e1461042f5780636817c76c1461044f57600080fd5b80632f745c591461032e5780633ccfd60b1461034e57806342842e0e146103635780634378a6e31461038357600080fd5b8063095ea7b3116101cc578063095ea7b3146102ad57806309ab9702146102cf57806318160ddd146102ef57806323b872dd1461030e57600080fd5b806301ffc9a7146101fe57806303324b781461023357806306fdde0314610253578063081812fc14610275575b600080fd5b34801561020a57600080fd5b5061021e6102193660046128db565b610672565b60405190151581526020015b60405180910390f35b34801561023f57600080fd5b5061021e61024e366004612914565b610683565b34801561025f57600080fd5b506102686106d4565b60405161022a9190612990565b34801561028157600080fd5b506102956102903660046129a3565b610766565b6040516001600160a01b03909116815260200161022a565b3480156102b957600080fd5b506102cd6102c83660046129bc565b61078d565b005b3480156102db57600080fd5b506102cd6102ea366004612914565b6108a7565b3480156102fb57600080fd5b506008545b60405190815260200161022a565b34801561031a57600080fd5b506102cd6103293660046129e6565b610932565b34801561033a57600080fd5b506103006103493660046129bc565b610963565b34801561035a57600080fd5b506102cd6109f9565b34801561036f57600080fd5b506102cd61037e3660046129e6565b610af2565b34801561038f57600080fd5b506103a361039e3660046129a3565b610b0d565b6040805163ffffffff95861681529385166020850152919093169082015267ffffffffffffffff909116606082015260800161022a565b3480156103e657600080fd5b506102cd6103f5366004612914565b610c1f565b34801561040657600080fd5b506103006104153660046129a3565b610ca7565b34801561042657600080fd5b50610300610d3a565b34801561043b57600080fd5b5061029561044a3660046129a3565b610d4a565b34801561045b57600080fd5b5061030060105481565b6102cd610473366004612a22565b610daa565b34801561048457600080fd5b50610300610493366004612a22565b610fff565b3480156104a457600080fd5b506102cd611085565b3480156104b957600080fd5b50600a546001600160a01b0316610295565b3480156104d757600080fd5b5061021e6104e6366004612a3d565b611099565b3480156104f757600080fd5b506102686111b8565b34801561050c57600080fd5b506102cd61051b366004612a5f565b6111c7565b34801561052c57600080fd5b506102cd61053b366004612ab1565b6111d2565b34801561054c57600080fd5b506102cd61055b366004612a3d565b61120a565b34801561056c57600080fd5b5061026861057b3660046129a3565b61143f565b34801561058c57600080fd5b5061030060115481565b6102cd6105a4366004612b8d565b6114b2565b3480156105b557600080fd5b506103006105c43660046129a3565b611851565b3480156105d557600080fd5b5061021e6105e4366004612c02565b6001600160a01b03918216600090815260056020908152604080832093909416825291909152205460ff1690565b34801561061e57600080fd5b506102cd61062d366004612a22565b611907565b34801561063e57600080fd5b506102cd61064d3660046129a3565b61197d565b34801561065e57600080fd5b506102cd61066d366004612a3d565b61198a565b600061067d826119ff565b92915050565b6000828152600f602090815260408083206001600160a01b038516845290915281205460ff16806106cd5750816001600160a01b03166106c284610d4a565b6001600160a01b0316145b9392505050565b6060600080546106e390612c2c565b80601f016020809104026020016040519081016040528092919081815260200182805461070f90612c2c565b801561075c5780601f106107315761010080835404028352916020019161075c565b820191906000526020600020905b81548152906001019060200180831161073f57829003601f168201915b5050505050905090565b600061077182611a24565b506000908152600460205260409020546001600160a01b031690565b600061079882610d4a565b9050806001600160a01b0316836001600160a01b03160361080a5760405162461bcd60e51b815260206004820152602160248201527f4552433732313a20617070726f76616c20746f2063757272656e74206f776e656044820152603960f91b60648201526084015b60405180910390fd5b336001600160a01b0382161480610826575061082681336105e4565b6108985760405162461bcd60e51b815260206004820152603d60248201527f4552433732313a20617070726f76652063616c6c6572206973206e6f7420746f60448201527f6b656e206f776e6572206f7220617070726f76656420666f7220616c6c0000006064820152608401610801565b6108a28383611a74565b505050565b336108b183610d4a565b6001600160a01b0316146108d75760405162461bcd60e51b815260040161080190612c66565b6000828152600f602090815260408083206001600160a01b0385168085529252808320805460ff1916600117905551909184917fb19bc8f67c5f826b2ada62dd6990d38b0e810237b614b20fd37378d9183110609190a35050565b61093c3382611ae2565b6109585760405162461bcd60e51b815260040161080190612c8d565b6108a2838383611b61565b600061096e83610fff565b82106109d05760405162461bcd60e51b815260206004820152602b60248201527f455243373231456e756d657261626c653a206f776e657220696e646578206f7560448201526a74206f6620626f756e647360a81b6064820152608401610801565b506001600160a01b03919091166000908152600660209081526040808320938352929052205490565b610a01611cd2565b4780610a465760405162461bcd60e51b81526020600482015260146024820152734e6f2066756e647320746f20776974686472617760601b6044820152606401610801565b6000610a5a600a546001600160a01b031690565b6001600160a01b03168260405160006040518083038185875af1925050503d8060008114610aa4576040519150601f19603f3d011682016040523d82523d6000602084013e610aa9565b606091505b5050905080610aee5760405162461bcd60e51b815260206004820152601160248201527015da5d1a191c985dd85b0819985a5b1959607a1b6044820152606401610801565b5050565b6108a2838383604051806020016040528060008152506111d2565b600080600080610b1c85611d2c565b610b385760405162461bcd60e51b815260040161080190612cda565b6000858152600f6020908152604080832033845290915290205460ff1680610b70575033610b6586610d4a565b6001600160a01b0316145b610bb45760405162461bcd60e51b81526020600482015260156024820152744e6f207065726d697373696f6e20746f207669657760581b6044820152606401610801565b505050600091825250600d60209081526040918290208251608081018452905463ffffffff80821680845264010000000083048216948401859052600160401b8304909116948301859052600160601b90910467ffffffffffffffff16606090920182905293919291565b33610c2983610d4a565b6001600160a01b031614610c4f5760405162461bcd60e51b815260040161080190612c66565b6000828152600f602090815260408083206001600160a01b0385168085529252808320805460ff1916905551909184917f142ab94cb665ef4c4c2a31c6c3c534c60406169ffe79e69ff2d9ed050b28075b9190a35050565b6000610cb260085490565b8210610d155760405162461bcd60e51b815260206004820152602c60248201527f455243373231456e756d657261626c653a20676c6f62616c20696e646578206f60448201526b7574206f6620626f756e647360a01b6064820152608401610801565b60088281548110610d2857610d28612d08565b90600052602060002001549050919050565b6000610d45600c5490565b905090565b6000818152600260205260408120546001600160a01b03168061067d5760405162461bcd60e51b8152602060048201526018602482015277115490cdcc8c4e881a5b9d985b1a59081d1bdad95b88125160421b6044820152606401610801565b610db2611d49565b601054341015610dfb5760405162461bcd60e51b8152602060048201526014602482015273125b9cdd59999a58da595b9d081c185e5b595b9d60621b6044820152606401610801565b60115460085410610e435760405162461bcd60e51b815260206004820152601260248201527113585e081cdd5c1c1b1e481c995858da195960721b6044820152606401610801565b6001600160a01b038116610e995760405162461bcd60e51b815260206004820152601b60248201527f43616e6e6f74206d696e7420746f207a65726f206164647265737300000000006044820152606401610801565b6000610ea4600c5490565b9050610eb4600c80546001019055565b6000610ebe611da2565b90506000610ecb82611e56565b905060016000610edb8484611f06565b6040805160808101825263ffffffff8088168252868116602080840191825287831684860190815267ffffffffffffffff8088166060870190815260008e8152600d9094529690922094518554935191519651909216600160601b0267ffffffffffffffff60601b19968516600160401b02969096166bffffffffffffffffffffffff60401b199185166401000000000267ffffffffffffffff1990941692909416919091179190911716179190911790559050610f998686611f39565b6000858152600f602090815260408083206001600160a01b038a168085529252808320805460ff191660011790555187927f4e60b77a04cc9464aba25edee4e78d2ddae3f8d47eab47d244df54063dc9e4c691a35050505050610ffc6001600b55565b50565b60006001600160a01b0382166110695760405162461bcd60e51b815260206004820152602960248201527f4552433732313a2061646472657373207a65726f206973206e6f7420612076616044820152683634b21037bbb732b960b91b6064820152608401610801565b506001600160a01b031660009081526003602052604090205490565b61108d611cd2565b6110976000611f53565b565b60006110a483611d2c565b80156110b457506110b482611d2c565b6110d05760405162461bcd60e51b815260040161080190612cda565b6000838152600f6020908152604080832033845290915290205460ff16806111085750336110fd84610d4a565b6001600160a01b0316145b801561114757506000828152600f6020908152604080832033845290915290205460ff168061114757503361113c83610d4a565b6001600160a01b0316145b6111935760405162461bcd60e51b815260206004820152601860248201527f4e6f207065726d697373696f6e20746f20636f6d7061726500000000000000006044820152606401610801565b506000908152600d60205260408082205492825290205463ffffffff91821691161190565b6060600180546106e390612c2c565b610aee338383611fa5565b6111dc3383611ae2565b6111f85760405162461bcd60e51b815260040161080190612c8d565b61120484848484612073565b50505050565b3361121483610d4a565b6001600160a01b03161461126a5760405162461bcd60e51b815260206004820152601760248201527f4e6f7420746865206f776e6572206f66207461726765740000000000000000006044820152606401610801565b3361127482610d4a565b6001600160a01b0316146112ca5760405162461bcd60e51b815260206004820152601a60248201527f4e6f7420746865206f776e6572206f66207361637269666963650000000000006044820152606401610801565b8082036113115760405162461bcd60e51b815260206004820152601560248201527421b0b73737ba1039b0b1b934b334b1b29039b2b63360591b6044820152606401610801565b6000818152600d6020526040808220548483529120805463ffffffff6401000000009384900481169360049261134c92869290910416612d34565b92506101000a81548163ffffffff021916908363ffffffff1602179055506001600d600084815260200190815260200160002060000160088282829054906101000a900463ffffffff166113a09190612d34565b92506101000a81548163ffffffff021916908363ffffffff1602179055506113c7816120a6565b6000818152600d6020818152604080842080546001600160a01b0319169055600e825280842084905585845291815291819020549051600160401b90910463ffffffff16815283917fb10b1b435d4b8efcbfea1f0587220c8e8585a4da22305af9a0614f17d09f7a3a91015b60405180910390a25050565b606061144a82611a24565b600061146160408051602081019091526000815290565b9050600081511161148157604051806020016040528060008152506106cd565b8061148b84612149565b60405160200161149c929190612d58565b6040516020818303038152906040529392505050565b6114ba611d49565b6114c2611cd2565b806115085760405162461bcd60e51b8152602060048201526016602482015275139bc81c9958da5c1a595b9d1cc81c1c9bdd9a59195960521b6044820152606401610801565b6011548161151560085490565b61151f9190612d87565b111561156d5760405162461bcd60e51b815260206004820152601760248201527f576f756c6420657863656564206d617820737570706c790000000000000000006044820152606401610801565b60105461157b908290612d9a565b3410156115c15760405162461bcd60e51b8152602060048201526014602482015273125b9cdd59999a58da595b9d081c185e5b595b9d60621b6044820152606401610801565b60005b818110156118465760008383838181106115e0576115e0612d08565b90506020020160208101906115f59190612a22565b6001600160a01b03160361164b5760405162461bcd60e51b815260206004820152601b60248201527f43616e6e6f74206d696e7420746f207a65726f206164647265737300000000006044820152606401610801565b6000611656600c5490565b9050611666600c80546001019055565b6000611670611da2565b9050600061167d82611e56565b90506001600061168d8484611f06565b6040805160808101825263ffffffff8088168252868116602080840191825287831684860190815267ffffffffffffffff8088166060870190815260008e8152600d9094529690922094518554935191519651909216600160601b0267ffffffffffffffff60601b19968516600160401b02969096166bffffffffffffffffffffffff60401b199185166401000000000267ffffffffffffffff199094169290941691909117919091171617919091179055905061177188888881811061175657611756612d08565b905060200201602081019061176b9190612a22565b86611f39565b6000858152600f602052604081206001918a8a8a81811061179457611794612d08565b90506020020160208101906117a99190612a22565b6001600160a01b031681526020810191909152604001600020805460ff1916911515919091179055848888888181106117e4576117e4612d08565b90506020020160208101906117f99190612a22565b6001600160a01b03167f4e60b77a04cc9464aba25edee4e78d2ddae3f8d47eab47d244df54063dc9e4c660405160405180910390a35050505050808061183e90612db1565b9150506115c4565b50610aee6001600b55565b600061185c82611d2c565b6118785760405162461bcd60e51b815260040161080190612cda565b6000828152600f6020908152604080832033845290915290205460ff16806118b05750336118a583610d4a565b6001600160a01b0316145b6118f45760405162461bcd60e51b81526020600482015260156024820152744e6f207065726d697373696f6e20746f207669657760581b6044820152606401610801565b506000908152600e602052604090205490565b61190f611cd2565b6001600160a01b0381166119745760405162461bcd60e51b815260206004820152602660248201527f4f776e61626c653a206e6577206f776e657220697320746865207a65726f206160448201526564647265737360d01b6064820152608401610801565b610ffc81611f53565b611985611cd2565b601055565b3361199483610d4a565b6001600160a01b0316146119ba5760405162461bcd60e51b815260040161080190612c66565b6000828152600e6020526040908190208290555182907fa0f1665b7b659537b52deec61ea64d134a3bccda74c7f4e79f2246e7a8187a8a906114339084815260200190565b60006001600160e01b0319821663780e9d6360e01b148061067d575061067d826121dc565b611a2d81611d2c565b610ffc5760405162461bcd60e51b8152602060048201526018602482015277115490cdcc8c4e881a5b9d985b1a59081d1bdad95b88125160421b6044820152606401610801565b600081815260046020526040902080546001600160a01b0319166001600160a01b0384169081179091558190611aa982610d4a565b6001600160a01b03167f8c5be1e5ebec7d5bd14f71427d1e84f3dd0314c0f7b2291e5b200ac8c7c3b92560405160405180910390a45050565b600080611aee83610d4a565b9050806001600160a01b0316846001600160a01b03161480611b3557506001600160a01b0380821660009081526005602090815260408083209388168352929052205460ff165b80611b595750836001600160a01b0316611b4e84610766565b6001600160a01b0316145b949350505050565b826001600160a01b0316611b7482610d4a565b6001600160a01b031614611b9a5760405162461bcd60e51b815260040161080190612dca565b6001600160a01b038216611bfc5760405162461bcd60e51b8152602060048201526024808201527f4552433732313a207472616e7366657220746f20746865207a65726f206164646044820152637265737360e01b6064820152608401610801565b611c09838383600161222c565b826001600160a01b0316611c1c82610d4a565b6001600160a01b031614611c425760405162461bcd60e51b815260040161080190612dca565b600081815260046020908152604080832080546001600160a01b03199081169091556001600160a01b0387811680865260038552838620805460001901905590871680865283862080546001019055868652600290945282852080549092168417909155905184937fddf252ad1be2c89b69c2b068fc378daa952ba7f163c4a11628f55a4df523b3ef91a4505050565b600a546001600160a01b031633146110975760405162461bcd60e51b815260206004820181905260248201527f4f776e61626c653a2063616c6c6572206973206e6f7420746865206f776e65726044820152606401610801565b6000908152600260205260409020546001600160a01b0316151590565b6002600b5403611d9b5760405162461bcd60e51b815260206004820152601f60248201527f5265656e7472616e637947756172643a207265656e7472616e742063616c6c006044820152606401610801565b6002600b55565b6000806064424433611db3600c5490565b6040805160208101959095528401929092526bffffffffffffffffffffffff19606091821b169083015260748201526094016040516020818303038152906040528051906020012060001c611e089190612e0f565b90506032811015611e1b57600191505090565b604b811015611e2c57600291505090565b605a811015611e3d57600391505090565b6062811015611e4e57600491505090565b600591505090565b600080424433611e65600c5490565b6040805160208101959095528401929092526bffffffffffffffffffffffff19606091821b169083015260748201526001600160e01b031960e085901b16609482015260980160408051601f19818403018152919052805160209091012090506000611ed2846064612e31565b90506000611ee1856032612e31565b611ef19063ffffffff1684612e0f565b9050611efd8183612d34565b95945050505050565b6000611f128284612e31565b611f299063ffffffff1666038d7ea4c68000612e59565b66ffffffffffffff169392505050565b610aee82826040518060200160405280600081525061227a565b600a80546001600160a01b038381166001600160a01b0319831681179093556040519116919082907f8be0079c531659141344cd1fd0a4f28419497f9722a3daafe3b4186f6b6457e090600090a35050565b816001600160a01b0316836001600160a01b0316036120065760405162461bcd60e51b815260206004820152601960248201527f4552433732313a20617070726f766520746f2063616c6c6572000000000000006044820152606401610801565b6001600160a01b03838116600081815260056020908152604080832094871680845294825291829020805460ff191686151590811790915591519182527f17307eab39ab6107e8899845ad3d59bd9653f200f220920489ca2b5937696c31910160405180910390a3505050565b61207e848484611b61565b61208a848484846122ad565b6112045760405162461bcd60e51b815260040161080190612e7c565b60006120b182610d4a565b90506120c181600084600161222c565b6120ca82610d4a565b600083815260046020908152604080832080546001600160a01b03199081169091556001600160a01b0385168085526003845282852080546000190190558785526002909352818420805490911690555192935084927fddf252ad1be2c89b69c2b068fc378daa952ba7f163c4a11628f55a4df523b3ef908390a45050565b60606000612156836123ae565b600101905060008167ffffffffffffffff81111561217657612176612a9b565b6040519080825280601f01601f1916602001820160405280156121a0576020820181803683370190505b5090508181016020015b600019016f181899199a1a9b1b9c1cb0b131b232b360811b600a86061a8153600a85049450846121aa57509392505050565b60006001600160e01b031982166380ac58cd60e01b148061220d57506001600160e01b03198216635b5e139f60e01b145b8061067d57506301ffc9a760e01b6001600160e01b031983161461067d565b61223884848484612486565b6001600160a01b03831615611204576000828152600f602090815260408083206001600160a01b03871684529091529020805460ff1916600117905550505050565b61228483836125ba565b61229160008484846122ad565b6108a25760405162461bcd60e51b815260040161080190612e7c565b60006001600160a01b0384163b156123a357604051630a85bd0160e11b81526001600160a01b0385169063150b7a02906122f1903390899088908890600401612ece565b6020604051808303816000875af192505050801561232c575060408051601f3d908101601f1916820190925261232991810190612f0b565b60015b612389573d80801561235a576040519150601f19603f3d011682016040523d82523d6000602084013e61235f565b606091505b5080516000036123815760405162461bcd60e51b815260040161080190612e7c565b805181602001fd5b6001600160e01b031916630a85bd0160e11b149050611b59565b506001949350505050565b60008072184f03e93ff9f4daa797ed6e38ed64bf6a1f0160401b83106123ed5772184f03e93ff9f4daa797ed6e38ed64bf6a1f0160401b830492506040015b6d04ee2d6d415b85acef81000000008310612419576d04ee2d6d415b85acef8100000000830492506020015b662386f26fc10000831061243757662386f26fc10000830492506010015b6305f5e100831061244f576305f5e100830492506008015b612710831061246357612710830492506004015b60648310612475576064830492506002015b600a831061067d5760010192915050565b60018111156124f55760405162461bcd60e51b815260206004820152603560248201527f455243373231456e756d657261626c653a20636f6e7365637574697665207472604482015274185b9cd9995c9cc81b9bdd081cdd5c1c1bdc9d1959605a1b6064820152608401610801565b816001600160a01b0385166125515761254c81600880546000838152600960205260408120829055600182018355919091527ff3f7a9fe364faab93b216da50a3214154f22a0a2b415b23a84c8169e8b636ee30155565b612574565b836001600160a01b0316856001600160a01b031614612574576125748582612735565b6001600160a01b0384166125905761258b816127d2565b6125b3565b846001600160a01b0316846001600160a01b0316146125b3576125b38482612881565b5050505050565b6001600160a01b0382166126105760405162461bcd60e51b815260206004820181905260248201527f4552433732313a206d696e7420746f20746865207a65726f20616464726573736044820152606401610801565b61261981611d2c565b156126665760405162461bcd60e51b815260206004820152601c60248201527f4552433732313a20746f6b656e20616c7265616479206d696e746564000000006044820152606401610801565b61267460008383600161222c565b61267d81611d2c565b156126ca5760405162461bcd60e51b815260206004820152601c60248201527f4552433732313a20746f6b656e20616c7265616479206d696e746564000000006044820152606401610801565b6001600160a01b038216600081815260036020908152604080832080546001019055848352600290915280822080546001600160a01b0319168417905551839291907fddf252ad1be2c89b69c2b068fc378daa952ba7f163c4a11628f55a4df523b3ef908290a45050565b6000600161274284610fff565b61274c9190612f28565b60008381526007602052604090205490915080821461279f576001600160a01b03841660009081526006602090815260408083208584528252808320548484528184208190558352600790915290208190555b5060009182526007602090815260408084208490556001600160a01b039094168352600681528383209183525290812055565b6008546000906127e490600190612f28565b6000838152600960205260408120546008805493945090928490811061280c5761280c612d08565b90600052602060002001549050806008838154811061282d5761282d612d08565b600091825260208083209091019290925582815260099091526040808220849055858252812055600880548061286557612865612f3b565b6001900381819060005260206000200160009055905550505050565b600061288c83610fff565b6001600160a01b039093166000908152600660209081526040808320868452825280832085905593825260079052919091209190915550565b6001600160e01b031981168114610ffc57600080fd5b6000602082840312156128ed57600080fd5b81356106cd816128c5565b80356001600160a01b038116811461290f57600080fd5b919050565b6000806040838503121561292757600080fd5b82359150612937602084016128f8565b90509250929050565b60005b8381101561295b578181015183820152602001612943565b50506000910152565b6000815180845261297c816020860160208601612940565b601f01601f19169290920160200192915050565b6020815260006106cd6020830184612964565b6000602082840312156129b557600080fd5b5035919050565b600080604083850312156129cf57600080fd5b6129d8836128f8565b946020939093013593505050565b6000806000606084860312156129fb57600080fd5b612a04846128f8565b9250612a12602085016128f8565b9150604084013590509250925092565b600060208284031215612a3457600080fd5b6106cd826128f8565b60008060408385031215612a5057600080fd5b50508035926020909101359150565b60008060408385031215612a7257600080fd5b612a7b836128f8565b915060208301358015158114612a9057600080fd5b809150509250929050565b634e487b7160e01b600052604160045260246000fd5b60008060008060808587031215612ac757600080fd5b612ad0856128f8565b9350612ade602086016128f8565b925060408501359150606085013567ffffffffffffffff80821115612b0257600080fd5b818701915087601f830112612b1657600080fd5b813581811115612b2857612b28612a9b565b604051601f8201601f19908116603f01168101908382118183101715612b5057612b50612a9b565b816040528281528a6020848701011115612b6957600080fd5b82602086016020830137600060208483010152809550505050505092959194509250565b60008060208385031215612ba057600080fd5b823567ffffffffffffffff80821115612bb857600080fd5b818501915085601f830112612bcc57600080fd5b813581811115612bdb57600080fd5b8660208260051b8501011115612bf057600080fd5b60209290920196919550909350505050565b60008060408385031215612c1557600080fd5b612c1e836128f8565b9150612937602084016128f8565b600181811c90821680612c4057607f821691505b602082108103612c6057634e487b7160e01b600052602260045260246000fd5b50919050565b6020808252600d908201526c2737ba103a34329037bbb732b960991b604082015260600190565b6020808252602d908201527f4552433732313a2063616c6c6572206973206e6f7420746f6b656e206f776e6560408201526c1c881bdc88185c1c1c9bdd9959609a1b606082015260800190565b602080825260149082015273151bdad95b88191bd95cc81b9bdd08195e1a5cdd60621b604082015260600190565b634e487b7160e01b600052603260045260246000fd5b634e487b7160e01b600052601160045260246000fd5b63ffffffff818116838216019080821115612d5157612d51612d1e565b5092915050565b60008351612d6a818460208801612940565b835190830190612d7e818360208801612940565b01949350505050565b8082018082111561067d5761067d612d1e565b808202811582820484141761067d5761067d612d1e565b600060018201612dc357612dc3612d1e565b5060010190565b60208082526025908201527f4552433732313a207472616e736665722066726f6d20696e636f72726563742060408201526437bbb732b960d91b606082015260800190565b600082612e2c57634e487b7160e01b600052601260045260246000fd5b500690565b63ffffffff818116838216028082169190828114612e5157612e51612d1e565b505092915050565b66ffffffffffffff818116838216028082169190828114612e5157612e51612d1e565b60208082526032908201527f4552433732313a207472616e7366657220746f206e6f6e20455243373231526560408201527131b2b4bb32b91034b6b83632b6b2b73a32b960711b606082015260800190565b6001600160a01b0385811682528416602082015260408101839052608060608201819052600090612f0190830184612964565b9695505050505050565b600060208284031215612f1d57600080fd5b81516106cd816128c5565b8181038181111561067d5761067d612d1e565b634e487b7160e01b600052603160045260246000fdfea26469706673582212205b01a353cf524eb41a7544bf0ab93e77054b03c6a8dfede7dc6e63a7e9e68d4664736f6c63430008130033",
  "linkReferences": {},
  "deployedLinkReferences": {}
}